{
  "_format": "hh-sol-artifact-1",
  "contractName": "Heliumwars",
  "sourceName": "contracts/Heliumwars.sol",
  "abi": [
    {
      "inputs": [],
      "stateMutability": "nonpayable",
      "type": "constructor"
    },
    {
      "anonymous": false,
      "inputs": [
        {
          "indexed": true,
          "internalType": "address",
          "name": "owner",
          "type": "address"
        },
        {
          "indexed": true,
          "internalType": "address",
          "name": "approved",
          "type": "address"
        },
        {
          "indexed": true,
          "internalType": "uint256",
          "name": "tokenId",
          "type": "uint256"
        }
      ],
      "name": "Approval",
      "type": "event"
    },
    {
      "anonymous": false,
      "inputs": [
        {
          "indexed": true,
          "internalType": "address",
          "name": "owner",
          "type": "address"
        },
        {
          "indexed": true,
          "internalType": "address",
          "name": "operator",
          "type": "address"
        },
        {
          "indexed": false,
          "internalType": "bool",
          "name": "approved",
          "type": "bool"
        }
      ],
      "name": "ApprovalForAll",
      "type": "event"
    },
    {
      "anonymous": false,
      "inputs": [
        {
          "indexed": true,
          "internalType": "address",
          "name": "previousOwner",
          "type": "address"
        },
        {
          "indexed": true,
          "internalType": "address",
          "name": "newOwner",
          "type": "address"
        }
      ],
      "name": "OwnershipTransferred",
      "type": "event"
    },
    {
      "anonymous": false,
      "inputs": [
        {
          "indexed": true,
          "internalType": "address",
          "name": "from",
          "type": "address"
        },
        {
          "indexed": true,
          "internalType": "address",
          "name": "to",
          "type": "address"
        },
        {
          "indexed": true,
          "internalType": "uint256",
          "name": "tokenId",
          "type": "uint256"
        }
      ],
      "name": "Transfer",
      "type": "event"
    },
    {
      "inputs": [],
      "name": "MAX_PUBLIC_MINT",
      "outputs": [
        {
          "internalType": "uint256",
          "name": "",
          "type": "uint256"
        }
      ],
      "stateMutability": "view",
      "type": "function"
    },
    {
      "inputs": [],
      "name": "MAX_SUPPLY",
      "outputs": [
        {
          "internalType": "uint256",
          "name": "",
          "type": "uint256"
        }
      ],
      "stateMutability": "view",
      "type": "function"
    },
    {
      "inputs": [],
      "name": "PRICE_PER_TOKEN",
      "outputs": [
        {
          "internalType": "uint256",
          "name": "",
          "type": "uint256"
        }
      ],
      "stateMutability": "view",
      "type": "function"
    },
    {
      "inputs": [
        {
          "internalType": "address",
          "name": "to",
          "type": "address"
        },
        {
          "internalType": "uint256",
          "name": "tokenId",
          "type": "uint256"
        }
      ],
      "name": "approve",
      "outputs": [],
      "stateMutability": "nonpayable",
      "type": "function"
    },
    {
      "inputs": [
        {
          "internalType": "address",
          "name": "owner",
          "type": "address"
        }
      ],
      "name": "balanceOf",
      "outputs": [
        {
          "internalType": "uint256",
          "name": "",
          "type": "uint256"
        }
      ],
      "stateMutability": "view",
      "type": "function"
    },
    {
      "inputs": [
        {
          "internalType": "uint256",
          "name": "tokenId",
          "type": "uint256"
        }
      ],
      "name": "getApproved",
      "outputs": [
        {
          "internalType": "address",
          "name": "",
          "type": "address"
        }
      ],
      "stateMutability": "view",
      "type": "function"
    },
    {
      "inputs": [
        {
          "internalType": "address",
          "name": "owner",
          "type": "address"
        },
        {
          "internalType": "address",
          "name": "operator",
          "type": "address"
        }
      ],
      "name": "isApprovedForAll",
      "outputs": [
        {
          "internalType": "bool",
          "name": "",
          "type": "bool"
        }
      ],
      "stateMutability": "view",
      "type": "function"
    },
    {
      "inputs": [],
      "name": "name",
      "outputs": [
        {
          "internalType": "string",
          "name": "",
          "type": "string"
        }
      ],
      "stateMutability": "view",
      "type": "function"
    },
    {
      "inputs": [
        {
          "internalType": "address",
          "name": "addr",
          "type": "address"
        }
      ],
      "name": "numAvailableToMint",
      "outputs": [
        {
          "internalType": "uint8",
          "name": "",
          "type": "uint8"
        }
      ],
      "stateMutability": "view",
      "type": "function"
    },
    {
      "inputs": [],
      "name": "owner",
      "outputs": [
        {
          "internalType": "address",
          "name": "",
          "type": "address"
        }
      ],
      "stateMutability": "view",
      "type": "function"
    },
    {
      "inputs": [
        {
          "internalType": "uint256",
          "name": "tokenId",
          "type": "uint256"
        }
      ],
      "name": "ownerOf",
      "outputs": [
        {
          "internalType": "address",
          "name": "",
          "type": "address"
        }
      ],
      "stateMutability": "view",
      "type": "function"
    },
    {
      "inputs": [
        {
          "internalType": "uint256",
          "name": "numberOfTokens",
          "type": "uint256"
        }
      ],
      "name": "publicMint",
      "outputs": [],
      "stateMutability": "payable",
      "type": "function"
    },
    {
      "inputs": [],
      "name": "publicSaleIsActive",
      "outputs": [
        {
          "internalType": "bool",
          "name": "",
          "type": "bool"
        }
      ],
      "stateMutability": "view",
      "type": "function"
    },
    {
      "inputs": [],
      "name": "renounceOwnership",
      "outputs": [],
      "stateMutability": "nonpayable",
      "type": "function"
    },
    {
      "inputs": [
        {
          "internalType": "address",
          "name": "from",
          "type": "address"
        },
        {
          "internalType": "address",
          "name": "to",
          "type": "address"
        },
        {
          "internalType": "uint256",
          "name": "tokenId",
          "type": "uint256"
        }
      ],
      "name": "safeTransferFrom",
      "outputs": [],
      "stateMutability": "nonpayable",
      "type": "function"
    },
    {
      "inputs": [
        {
          "internalType": "address",
          "name": "from",
          "type": "address"
        },
        {
          "internalType": "address",
          "name": "to",
          "type": "address"
        },
        {
          "internalType": "uint256",
          "name": "tokenId",
          "type": "uint256"
        },
        {
          "internalType": "bytes",
          "name": "_data",
          "type": "bytes"
        }
      ],
      "name": "safeTransferFrom",
      "outputs": [],
      "stateMutability": "nonpayable",
      "type": "function"
    },
    {
      "inputs": [
        {
          "internalType": "address",
          "name": "operator",
          "type": "address"
        },
        {
          "internalType": "bool",
          "name": "approved",
          "type": "bool"
        }
      ],
      "name": "setApprovalForAll",
      "outputs": [],
      "stateMutability": "nonpayable",
      "type": "function"
    },
    {
      "inputs": [
        {
          "internalType": "string",
          "name": "uri",
          "type": "string"
        }
      ],
      "name": "setBaseURI",
      "outputs": [],
      "stateMutability": "nonpayable",
      "type": "function"
    },
    {
      "inputs": [
        {
          "internalType": "bool",
          "name": "newState",
          "type": "bool"
        }
      ],
      "name": "setPublicSaleState",
      "outputs": [],
      "stateMutability": "nonpayable",
      "type": "function"
    },
    {
      "inputs": [
        {
          "internalType": "address[]",
          "name": "addresses",
          "type": "address[]"
        },
        {
          "internalType": "uint8",
          "name": "numAllowedToMint",
          "type": "uint8"
        }
      ],
      "name": "setWhiteList",
      "outputs": [],
      "stateMutability": "nonpayable",
      "type": "function"
    },
    {
      "inputs": [
        {
          "internalType": "bool",
          "name": "newState",
          "type": "bool"
        }
      ],
      "name": "setWhitelistSaleState",
      "outputs": [],
      "stateMutability": "nonpayable",
      "type": "function"
    },
    {
      "inputs": [
        {
          "internalType": "bytes4",
          "name": "interfaceId",
          "type": "bytes4"
        }
      ],
      "name": "supportsInterface",
      "outputs": [
        {
          "internalType": "bool",
          "name": "",
          "type": "bool"
        }
      ],
      "stateMutability": "view",
      "type": "function"
    },
    {
      "inputs": [],
      "name": "symbol",
      "outputs": [
        {
          "internalType": "string",
          "name": "",
          "type": "string"
        }
      ],
      "stateMutability": "view",
      "type": "function"
    },
    {
      "inputs": [
        {
          "internalType": "uint256",
          "name": "index",
          "type": "uint256"
        }
      ],
      "name": "tokenByIndex",
      "outputs": [
        {
          "internalType": "uint256",
          "name": "",
          "type": "uint256"
        }
      ],
      "stateMutability": "view",
      "type": "function"
    },
    {
      "inputs": [
        {
          "internalType": "address",
          "name": "owner",
          "type": "address"
        },
        {
          "internalType": "uint256",
          "name": "index",
          "type": "uint256"
        }
      ],
      "name": "tokenOfOwnerByIndex",
      "outputs": [
        {
          "internalType": "uint256",
          "name": "",
          "type": "uint256"
        }
      ],
      "stateMutability": "view",
      "type": "function"
    },
    {
      "inputs": [
        {
          "internalType": "uint256",
          "name": "tokenId",
          "type": "uint256"
        }
      ],
      "name": "tokenURI",
      "outputs": [
        {
          "internalType": "string",
          "name": "",
          "type": "string"
        }
      ],
      "stateMutability": "view",
      "type": "function"
    },
    {
      "inputs": [],
      "name": "totalSupply",
      "outputs": [
        {
          "internalType": "uint256",
          "name": "",
          "type": "uint256"
        }
      ],
      "stateMutability": "view",
      "type": "function"
    },
    {
      "inputs": [
        {
          "internalType": "address",
          "name": "from",
          "type": "address"
        },
        {
          "internalType": "address",
          "name": "to",
          "type": "address"
        },
        {
          "internalType": "uint256",
          "name": "tokenId",
          "type": "uint256"
        }
      ],
      "name": "transferFrom",
      "outputs": [],
      "stateMutability": "nonpayable",
      "type": "function"
    },
    {
      "inputs": [
        {
          "internalType": "address",
          "name": "newOwner",
          "type": "address"
        }
      ],
      "name": "transferOwnership",
      "outputs": [],
      "stateMutability": "nonpayable",
      "type": "function"
    },
    {
      "inputs": [
        {
          "internalType": "uint8",
          "name": "numberOfTokens",
          "type": "uint8"
        }
      ],
      "name": "whitelistMint",
      "outputs": [],
      "stateMutability": "payable",
      "type": "function"
    },
    {
      "inputs": [],
      "name": "whitelistSaleIsActive",
      "outputs": [
        {
          "internalType": "bool",
          "name": "",
          "type": "bool"
        }
      ],
      "stateMutability": "view",
      "type": "function"
    },
    {
      "inputs": [],
      "name": "withdraw",
      "outputs": [],
      "stateMutability": "nonpayable",
      "type": "function"
    }
  ],
  "bytecode": "0x60806040526000600b60146101000a81548160ff0219169083151502179055506000600b60156101000a81548160ff0219169083151502179055503480156200004757600080fd5b506040518060400160405280600a81526020017f48656c69756d77617273000000000000000000000000000000000000000000008152506040518060400160405280600a81526020017f48454c49554d57415253000000000000000000000000000000000000000000008152508160009080519060200190620000cc929190620001dc565b508060019080519060200190620000e5929190620001dc565b50505062000108620000fc6200010e60201b60201c565b6200011660201b60201c565b620002f1565b600033905090565b6000600b60009054906101000a900473ffffffffffffffffffffffffffffffffffffffff16905081600b60006101000a81548173ffffffffffffffffffffffffffffffffffffffff021916908373ffffffffffffffffffffffffffffffffffffffff1602179055508173ffffffffffffffffffffffffffffffffffffffff168173ffffffffffffffffffffffffffffffffffffffff167f8be0079c531659141344cd1fd0a4f28419497f9722a3daafe3b4186f6b6457e060405160405180910390a35050565b828054620001ea906200028c565b90600052602060002090601f0160209004810192826200020e57600085556200025a565b82601f106200022957805160ff19168380011785556200025a565b828001600101855582156200025a579182015b82811115620002595782518255916020019190600101906200023c565b5b5090506200026991906200026d565b5090565b5b80821115620002885760008160009055506001016200026e565b5090565b60006002820490506001821680620002a557607f821691505b60208210811415620002bc57620002bb620002c2565b5b50919050565b7f4e487b7100000000000000000000000000000000000000000000000000000000600052602260045260246000fd5b6148d580620003016000396000f3fe6080604052600436106101e35760003560e01c806360e85cde1161010257806395d89b4111610095578063c87b56dd11610064578063c87b56dd146106c4578063e985e9c514610701578063f2fde38b1461073e578063f6dc6bf814610767576101e3565b806395d89b411461060a578063a22cb46514610635578063b88d4fde1461065e578063c04a283614610687576101e3565b8063715018a6116100d1578063715018a614610574578063833b94991461058b5780638da5cb5b146105b65780639293a5c7146105e1576101e3565b806360e85cde146104b35780636352211e146104cf57806365f130971461050c57806370a0823114610537576101e3565b806323b872dd1161017a5780633ccfd60b116101495780633ccfd60b1461040d57806342842e0e146104245780634f6ccce71461044d57806355f804b31461048a576101e3565b806323b872dd146103605780632db11544146103895780632f745c59146103a557806332cb6b0c146103e2576101e3565b80630c4dc29c116101b65780630c4dc29c146102b65780630fcf2e75146102df57806310b5454d1461030a57806318160ddd14610335576101e3565b806301ffc9a7146101e857806306fdde0314610225578063081812fc14610250578063095ea7b31461028d575b600080fd5b3480156101f457600080fd5b5061020f600480360381019061020a919061336c565b610790565b60405161021c9190613949565b60405180910390f35b34801561023157600080fd5b5061023a6107a2565b6040516102479190613964565b60405180910390f35b34801561025c57600080fd5b50610277600480360381019061027291906133ff565b610834565b60405161028491906138e2565b60405180910390f35b34801561029957600080fd5b506102b460048036038101906102af91906132af565b6108b9565b005b3480156102c257600080fd5b506102dd60048036038101906102d89190613343565b6109d1565b005b3480156102eb57600080fd5b506102f4610a6a565b6040516103019190613949565b60405180910390f35b34801561031657600080fd5b5061031f610a7d565b60405161032c9190613949565b60405180910390f35b34801561034157600080fd5b5061034a610a90565b6040516103579190613cc6565b60405180910390f35b34801561036c57600080fd5b50610387600480360381019061038291906131a9565b610a9d565b005b6103a3600480360381019061039e91906133ff565b610afd565b005b3480156103b157600080fd5b506103cc60048036038101906103c791906132af565b610ca2565b6040516103d99190613cc6565b60405180910390f35b3480156103ee57600080fd5b506103f7610d47565b6040516104049190613cc6565b60405180910390f35b34801561041957600080fd5b50610422610d4d565b005b34801561043057600080fd5b5061044b600480360381019061044691906131a9565b610e18565b005b34801561045957600080fd5b50610474600480360381019061046f91906133ff565b610e38565b6040516104819190613cc6565b60405180910390f35b34801561049657600080fd5b506104b160048036038101906104ac91906133be565b610ecf565b005b6104cd60048036038101906104c89190613428565b610f65565b005b3480156104db57600080fd5b506104f660048036038101906104f191906133ff565b6111d7565b60405161050391906138e2565b60405180910390f35b34801561051857600080fd5b50610521611289565b60405161052e9190613cc6565b60405180910390f35b34801561054357600080fd5b5061055e60048036038101906105599190613144565b61128e565b60405161056b9190613cc6565b60405180910390f35b34801561058057600080fd5b50610589611346565b005b34801561059757600080fd5b506105a06113ce565b6040516105ad9190613cc6565b60405180910390f35b3480156105c257600080fd5b506105cb6113da565b6040516105d891906138e2565b60405180910390f35b3480156105ed57600080fd5b5061060860048036038101906106039190613343565b611404565b005b34801561061657600080fd5b5061061f61149d565b60405161062c9190613964565b60405180910390f35b34801561064157600080fd5b5061065c60048036038101906106579190613273565b61152f565b005b34801561066a57600080fd5b50610685600480360381019061068091906131f8565b611545565b005b34801561069357600080fd5b506106ae60048036038101906106a99190613144565b6115a7565b6040516106bb9190613ce1565b60405180910390f35b3480156106d057600080fd5b506106eb60048036038101906106e691906133ff565b6115fd565b6040516106f89190613964565b60405180910390f35b34801561070d57600080fd5b506107286004803603810190610723919061316d565b61160f565b6040516107359190613949565b60405180910390f35b34801561074a57600080fd5b5061076560048036038101906107609190613144565b6116a3565b005b34801561077357600080fd5b5061078e600480360381019061078991906132eb565b61179b565b005b600061079b826118e3565b9050919050565b6060600080546107b190613fd2565b80601f01602080910402602001604051908101604052809291908181526020018280546107dd90613fd2565b801561082a5780601f106107ff5761010080835404028352916020019161082a565b820191906000526020600020905b81548152906001019060200180831161080d57829003601f168201915b5050505050905090565b600061083f8261195d565b61087e576040517f08c379a000000000000000000000000000000000000000000000000000000000815260040161087590613ba6565b60405180910390fd5b6004600083815260200190815260200160002060009054906101000a900473ffffffffffffffffffffffffffffffffffffffff169050919050565b60006108c4826111d7565b90508073ffffffffffffffffffffffffffffffffffffffff168373ffffffffffffffffffffffffffffffffffffffff161415610935576040517f08c379a000000000000000000000000000000000000000000000000000000000815260040161092c90613c26565b60405180910390fd5b8073ffffffffffffffffffffffffffffffffffffffff166109546119c9565b73ffffffffffffffffffffffffffffffffffffffff16148061098357506109828161097d6119c9565b61160f565b5b6109c2576040517f08c379a00000000000000000000000000000000000000000000000000000000081526004016109b990613ae6565b60405180910390fd5b6109cc83836119d1565b505050565b6109d96119c9565b73ffffffffffffffffffffffffffffffffffffffff166109f76113da565b73ffffffffffffffffffffffffffffffffffffffff1614610a4d576040517f08c379a0000000000000000000000000000000000000000000000000000000008152600401610a4490613be6565b60405180910390fd5b80600b60156101000a81548160ff02191690831515021790555050565b600b60149054906101000a900460ff1681565b600b60159054906101000a900460ff1681565b6000600880549050905090565b610aae610aa86119c9565b82611a8a565b610aed576040517f08c379a0000000000000000000000000000000000000000000000000000000008152600401610ae490613c86565b60405180910390fd5b610af8838383611b68565b505050565b6000610b07610a90565b9050600b60149054906101000a900460ff16610b58576040517f08c379a0000000000000000000000000000000000000000000000000000000008152600401610b4f90613bc6565b60405180910390fd5b6001821115610b9c576040517f08c379a0000000000000000000000000000000000000000000000000000000008152600401610b9390613c46565b60405180910390fd5b6122b88282610bab9190613dc6565b1115610bec576040517f08c379a0000000000000000000000000000000000000000000000000000000008152600401610be3906139e6565b60405180910390fd5b34826701aa535d3d0c0000610c019190613e4d565b1115610c42576040517f08c379a0000000000000000000000000000000000000000000000000000000008152600401610c3990613aa6565b60405180910390fd5b60005b82811015610c9d57610c62338284610c5d9190613dc6565b611dcf565b610c8a8183610c719190613dc6565b610c858385610c809190613dc6565b611ded565b611f9a565b8080610c9590614035565b915050610c45565b505050565b6000610cad8361128e565b8210610cee576040517f08c379a0000000000000000000000000000000000000000000000000000000008152600401610ce590613986565b60405180910390fd5b600660008473ffffffffffffffffffffffffffffffffffffffff1673ffffffffffffffffffffffffffffffffffffffff168152602001908152602001600020600083815260200190815260200160002054905092915050565b6122b881565b610d556119c9565b73ffffffffffffffffffffffffffffffffffffffff16610d736113da565b73ffffffffffffffffffffffffffffffffffffffff1614610dc9576040517f08c379a0000000000000000000000000000000000000000000000000000000008152600401610dc090613be6565b60405180910390fd5b60004790503373ffffffffffffffffffffffffffffffffffffffff166108fc829081150290604051600060405180830381858888f19350505050158015610e14573d6000803e3d6000fd5b5050565b610e3383838360405180602001604052806000815250611545565b505050565b6000610e42610a90565b8210610e83576040517f08c379a0000000000000000000000000000000000000000000000000000000008152600401610e7a90613ca6565b60405180910390fd5b60088281548110610ebd577f4e487b7100000000000000000000000000000000000000000000000000000000600052603260045260246000fd5b90600052602060002001549050919050565b610ed76119c9565b73ffffffffffffffffffffffffffffffffffffffff16610ef56113da565b73ffffffffffffffffffffffffffffffffffffffff1614610f4b576040517f08c379a0000000000000000000000000000000000000000000000000000000008152600401610f4290613be6565b60405180910390fd5b80600c9080519060200190610f61929190612f09565b5050565b6000610f6f610a90565b9050600b60159054906101000a900460ff16610fc0576040517f08c379a0000000000000000000000000000000000000000000000000000000008152600401610fb790613a46565b60405180910390fd5b600d60003373ffffffffffffffffffffffffffffffffffffffff1673ffffffffffffffffffffffffffffffffffffffff16815260200190815260200160002060009054906101000a900460ff1660ff168260ff161115611055576040517f08c379a000000000000000000000000000000000000000000000000000000000815260040161104c90613c66565b60405180910390fd5b6122b88260ff16826110679190613dc6565b11156110a8576040517f08c379a000000000000000000000000000000000000000000000000000000000815260040161109f906139e6565b60405180910390fd5b348260ff166701aa535d3d0c00006110c09190613e4d565b1115611101576040517f08c379a00000000000000000000000000000000000000000000000000000000081526004016110f890613aa6565b60405180910390fd5b81600d60003373ffffffffffffffffffffffffffffffffffffffff1673ffffffffffffffffffffffffffffffffffffffff16815260200190815260200160002060008282829054906101000a900460ff1661115c9190613edb565b92506101000a81548160ff021916908360ff16021790555060005b8260ff168110156111d2576111973382846111929190613dc6565b611dcf565b6111bf81836111a69190613dc6565b6111ba83856111b59190613dc6565b611ded565b611f9a565b80806111ca90614035565b915050611177565b505050565b6000806002600084815260200190815260200160002060009054906101000a900473ffffffffffffffffffffffffffffffffffffffff169050600073ffffffffffffffffffffffffffffffffffffffff168173ffffffffffffffffffffffffffffffffffffffff161415611280576040517f08c379a000000000000000000000000000000000000000000000000000000000815260040161127790613b26565b60405180910390fd5b80915050919050565b600181565b60008073ffffffffffffffffffffffffffffffffffffffff168273ffffffffffffffffffffffffffffffffffffffff1614156112ff576040517f08c379a00000000000000000000000000000000000000000000000000000000081526004016112f690613b06565b60405180910390fd5b600360008373ffffffffffffffffffffffffffffffffffffffff1673ffffffffffffffffffffffffffffffffffffffff168152602001908152602001600020549050919050565b61134e6119c9565b73ffffffffffffffffffffffffffffffffffffffff1661136c6113da565b73ffffffffffffffffffffffffffffffffffffffff16146113c2576040517f08c379a00000000000000000000000000000000000000000000000000000000081526004016113b990613be6565b60405180910390fd5b6113cc600061200e565b565b6701aa535d3d0c000081565b6000600b60009054906101000a900473ffffffffffffffffffffffffffffffffffffffff16905090565b61140c6119c9565b73ffffffffffffffffffffffffffffffffffffffff1661142a6113da565b73ffffffffffffffffffffffffffffffffffffffff1614611480576040517f08c379a000000000000000000000000000000000000000000000000000000000815260040161147790613be6565b60405180910390fd5b80600b60146101000a81548160ff02191690831515021790555050565b6060600180546114ac90613fd2565b80601f01602080910402602001604051908101604052809291908181526020018280546114d890613fd2565b80156115255780601f106114fa57610100808354040283529160200191611525565b820191906000526020600020905b81548152906001019060200180831161150857829003601f168201915b5050505050905090565b61154161153a6119c9565b83836120d4565b5050565b6115566115506119c9565b83611a8a565b611595576040517f08c379a000000000000000000000000000000000000000000000000000000000815260040161158c90613c86565b60405180910390fd5b6115a184848484612241565b50505050565b6000600d60008373ffffffffffffffffffffffffffffffffffffffff1673ffffffffffffffffffffffffffffffffffffffff16815260200190815260200160002060009054906101000a900460ff169050919050565b60606116088261229d565b9050919050565b6000600560008473ffffffffffffffffffffffffffffffffffffffff1673ffffffffffffffffffffffffffffffffffffffff16815260200190815260200160002060008373ffffffffffffffffffffffffffffffffffffffff1673ffffffffffffffffffffffffffffffffffffffff16815260200190815260200160002060009054906101000a900460ff16905092915050565b6116ab6119c9565b73ffffffffffffffffffffffffffffffffffffffff166116c96113da565b73ffffffffffffffffffffffffffffffffffffffff161461171f576040517f08c379a000000000000000000000000000000000000000000000000000000000815260040161171690613be6565b60405180910390fd5b600073ffffffffffffffffffffffffffffffffffffffff168173ffffffffffffffffffffffffffffffffffffffff16141561178f576040517f08c379a0000000000000000000000000000000000000000000000000000000008152600401611786906139c6565b60405180910390fd5b6117988161200e565b50565b6117a36119c9565b73ffffffffffffffffffffffffffffffffffffffff166117c16113da565b73ffffffffffffffffffffffffffffffffffffffff1614611817576040517f08c379a000000000000000000000000000000000000000000000000000000000815260040161180e90613be6565b60405180910390fd5b60005b838390508110156118dd5781600d6000868685818110611863577f4e487b7100000000000000000000000000000000000000000000000000000000600052603260045260246000fd5b90506020020160208101906118789190613144565b73ffffffffffffffffffffffffffffffffffffffff1673ffffffffffffffffffffffffffffffffffffffff16815260200190815260200160002060006101000a81548160ff021916908360ff16021790555080806118d590614035565b91505061181a565b50505050565b60007f780e9d63000000000000000000000000000000000000000000000000000000007bffffffffffffffffffffffffffffffffffffffffffffffffffffffff1916827bffffffffffffffffffffffffffffffffffffffffffffffffffffffff191614806119565750611955826123ef565b5b9050919050565b60008073ffffffffffffffffffffffffffffffffffffffff166002600084815260200190815260200160002060009054906101000a900473ffffffffffffffffffffffffffffffffffffffff1673ffffffffffffffffffffffffffffffffffffffff1614159050919050565b600033905090565b816004600083815260200190815260200160002060006101000a81548173ffffffffffffffffffffffffffffffffffffffff021916908373ffffffffffffffffffffffffffffffffffffffff160217905550808273ffffffffffffffffffffffffffffffffffffffff16611a44836111d7565b73ffffffffffffffffffffffffffffffffffffffff167f8c5be1e5ebec7d5bd14f71427d1e84f3dd0314c0f7b2291e5b200ac8c7c3b92560405160405180910390a45050565b6000611a958261195d565b611ad4576040517f08c379a0000000000000000000000000000000000000000000000000000000008152600401611acb90613ac6565b60405180910390fd5b6000611adf836111d7565b90508073ffffffffffffffffffffffffffffffffffffffff168473ffffffffffffffffffffffffffffffffffffffff161480611b4e57508373ffffffffffffffffffffffffffffffffffffffff16611b3684610834565b73ffffffffffffffffffffffffffffffffffffffff16145b80611b5f5750611b5e818561160f565b5b91505092915050565b8273ffffffffffffffffffffffffffffffffffffffff16611b88826111d7565b73ffffffffffffffffffffffffffffffffffffffff1614611bde576040517f08c379a0000000000000000000000000000000000000000000000000000000008152600401611bd590613a06565b60405180910390fd5b600073ffffffffffffffffffffffffffffffffffffffff168273ffffffffffffffffffffffffffffffffffffffff161415611c4e576040517f08c379a0000000000000000000000000000000000000000000000000000000008152600401611c4590613a66565b60405180910390fd5b611c598383836124d1565b611c646000826119d1565b6001600360008573ffffffffffffffffffffffffffffffffffffffff1673ffffffffffffffffffffffffffffffffffffffff1681526020019081526020016000206000828254611cb49190613ea7565b925050819055506001600360008473ffffffffffffffffffffffffffffffffffffffff1673ffffffffffffffffffffffffffffffffffffffff1681526020019081526020016000206000828254611d0b9190613dc6565b92505081905550816002600083815260200190815260200160002060006101000a81548173ffffffffffffffffffffffffffffffffffffffff021916908373ffffffffffffffffffffffffffffffffffffffff160217905550808273ffffffffffffffffffffffffffffffffffffffff168473ffffffffffffffffffffffffffffffffffffffff167fddf252ad1be2c89b69c2b068fc378daa952ba7f163c4a11628f55a4df523b3ef60405160405180910390a4611dca8383836124e1565b505050565b611de98282604051806020016040528060008152506124e6565b5050565b60606000821415611e35576040518060400160405280600181526020017f30000000000000000000000000000000000000000000000000000000000000008152509050611f95565b600082905060005b60008214611e67578080611e5090614035565b915050600a82611e609190613e1c565b9150611e3d565b60008167ffffffffffffffff811115611ea9577f4e487b7100000000000000000000000000000000000000000000000000000000600052604160045260246000fd5b6040519080825280601f01601f191660200182016040528015611edb5781602001600182028036833780820191505090505b5090505b60008514611f8e57600182611ef49190613ea7565b9150600a85611f03919061407e565b6030611f0f9190613dc6565b60f81b818381518110611f4b577f4e487b7100000000000000000000000000000000000000000000000000000000600052603260045260246000fd5b60200101907effffffffffffffffffffffffffffffffffffffffffffffffffffffffffffff1916908160001a905350600a85611f879190613e1c565b9450611edf565b8093505050505b919050565b611fa38261195d565b611fe2576040517f08c379a0000000000000000000000000000000000000000000000000000000008152600401611fd990613b46565b60405180910390fd5b80600a60008481526020019081526020016000209080519060200190612009929190612f09565b505050565b6000600b60009054906101000a900473ffffffffffffffffffffffffffffffffffffffff16905081600b60006101000a81548173ffffffffffffffffffffffffffffffffffffffff021916908373ffffffffffffffffffffffffffffffffffffffff1602179055508173ffffffffffffffffffffffffffffffffffffffff168173ffffffffffffffffffffffffffffffffffffffff167f8be0079c531659141344cd1fd0a4f28419497f9722a3daafe3b4186f6b6457e060405160405180910390a35050565b8173ffffffffffffffffffffffffffffffffffffffff168373ffffffffffffffffffffffffffffffffffffffff161415612143576040517f08c379a000000000000000000000000000000000000000000000000000000000815260040161213a90613a86565b60405180910390fd5b80600560008573ffffffffffffffffffffffffffffffffffffffff1673ffffffffffffffffffffffffffffffffffffffff16815260200190815260200160002060008473ffffffffffffffffffffffffffffffffffffffff1673ffffffffffffffffffffffffffffffffffffffff16815260200190815260200160002060006101000a81548160ff0219169083151502179055508173ffffffffffffffffffffffffffffffffffffffff168373ffffffffffffffffffffffffffffffffffffffff167f17307eab39ab6107e8899845ad3d59bd9653f200f220920489ca2b5937696c31836040516122349190613949565b60405180910390a3505050565b61224c848484611b68565b61225884848484612541565b612297576040517f08c379a000000000000000000000000000000000000000000000000000000000815260040161228e906139a6565b60405180910390fd5b50505050565b60606122a88261195d565b6122e7576040517f08c379a00000000000000000000000000000000000000000000000000000000081526004016122de90613b86565b60405180910390fd5b6000600a6000848152602001908152602001600020805461230790613fd2565b80601f016020809104026020016040519081016040528092919081815260200182805461233390613fd2565b80156123805780601f1061235557610100808354040283529160200191612380565b820191906000526020600020905b81548152906001019060200180831161236357829003601f168201915b5050505050905060006123916126d8565b90506000815114156123a75781925050506123ea565b6000825111156123dc5780826040516020016123c49291906138be565b604051602081830303815290604052925050506123ea565b6123e58461276a565b925050505b919050565b60007f80ac58cd000000000000000000000000000000000000000000000000000000007bffffffffffffffffffffffffffffffffffffffffffffffffffffffff1916827bffffffffffffffffffffffffffffffffffffffffffffffffffffffff191614806124ba57507f5b5e139f000000000000000000000000000000000000000000000000000000007bffffffffffffffffffffffffffffffffffffffffffffffffffffffff1916827bffffffffffffffffffffffffffffffffffffffffffffffffffffffff1916145b806124ca57506124c982612811565b5b9050919050565b6124dc83838361287b565b505050565b505050565b6124f0838361298f565b6124fd6000848484612541565b61253c576040517f08c379a0000000000000000000000000000000000000000000000000000000008152600401612533906139a6565b60405180910390fd5b505050565b60006125628473ffffffffffffffffffffffffffffffffffffffff16612b69565b156126cb578373ffffffffffffffffffffffffffffffffffffffff1663150b7a0261258b6119c9565b8786866040518563ffffffff1660e01b81526004016125ad94939291906138fd565b602060405180830381600087803b1580156125c757600080fd5b505af19250505080156125f857506040513d601f19601f820116820180604052508101906125f59190613395565b60015b61267b573d8060008114612628576040519150601f19603f3d011682016040523d82523d6000602084013e61262d565b606091505b50600081511415612673576040517f08c379a000000000000000000000000000000000000000000000000000000000815260040161266a906139a6565b60405180910390fd5b805181602001fd5b63150b7a0260e01b7bffffffffffffffffffffffffffffffffffffffffffffffffffffffff1916817bffffffffffffffffffffffffffffffffffffffffffffffffffffffff1916149150506126d0565b600190505b949350505050565b6060600c80546126e790613fd2565b80601f016020809104026020016040519081016040528092919081815260200182805461271390613fd2565b80156127605780601f1061273557610100808354040283529160200191612760565b820191906000526020600020905b81548152906001019060200180831161274357829003601f168201915b5050505050905090565b60606127758261195d565b6127b4576040517f08c379a00000000000000000000000000000000000000000000000000000000081526004016127ab90613c06565b60405180910390fd5b60006127be6126d8565b905060008151116127de5760405180602001604052806000815250612809565b806127e884611ded565b6040516020016127f99291906138be565b6040516020818303038152906040525b915050919050565b60007f01ffc9a7000000000000000000000000000000000000000000000000000000007bffffffffffffffffffffffffffffffffffffffffffffffffffffffff1916827bffffffffffffffffffffffffffffffffffffffffffffffffffffffff1916149050919050565b612886838383612b8c565b600073ffffffffffffffffffffffffffffffffffffffff168373ffffffffffffffffffffffffffffffffffffffff1614156128c9576128c481612b91565b612908565b8173ffffffffffffffffffffffffffffffffffffffff168373ffffffffffffffffffffffffffffffffffffffff1614612907576129068382612bda565b5b5b600073ffffffffffffffffffffffffffffffffffffffff168273ffffffffffffffffffffffffffffffffffffffff16141561294b5761294681612d47565b61298a565b8273ffffffffffffffffffffffffffffffffffffffff168273ffffffffffffffffffffffffffffffffffffffff1614612989576129888282612e8a565b5b5b505050565b600073ffffffffffffffffffffffffffffffffffffffff168273ffffffffffffffffffffffffffffffffffffffff1614156129ff576040517f08c379a00000000000000000000000000000000000000000000000000000000081526004016129f690613b66565b60405180910390fd5b612a088161195d565b15612a48576040517f08c379a0000000000000000000000000000000000000000000000000000000008152600401612a3f90613a26565b60405180910390fd5b612a54600083836124d1565b6001600360008473ffffffffffffffffffffffffffffffffffffffff1673ffffffffffffffffffffffffffffffffffffffff1681526020019081526020016000206000828254612aa49190613dc6565b92505081905550816002600083815260200190815260200160002060006101000a81548173ffffffffffffffffffffffffffffffffffffffff021916908373ffffffffffffffffffffffffffffffffffffffff160217905550808273ffffffffffffffffffffffffffffffffffffffff16600073ffffffffffffffffffffffffffffffffffffffff167fddf252ad1be2c89b69c2b068fc378daa952ba7f163c4a11628f55a4df523b3ef60405160405180910390a4612b65600083836124e1565b5050565b6000808273ffffffffffffffffffffffffffffffffffffffff163b119050919050565b505050565b6008805490506009600083815260200190815260200160002081905550600881908060018154018082558091505060019003906000526020600020016000909190919091505550565b60006001612be78461128e565b612bf19190613ea7565b9050600060076000848152602001908152602001600020549050818114612cd6576000600660008673ffffffffffffffffffffffffffffffffffffffff1673ffffffffffffffffffffffffffffffffffffffff168152602001908152602001600020600084815260200190815260200160002054905080600660008773ffffffffffffffffffffffffffffffffffffffff1673ffffffffffffffffffffffffffffffffffffffff168152602001908152602001600020600084815260200190815260200160002081905550816007600083815260200190815260200160002081905550505b6007600084815260200190815260200160002060009055600660008573ffffffffffffffffffffffffffffffffffffffff1673ffffffffffffffffffffffffffffffffffffffff16815260200190815260200160002060008381526020019081526020016000206000905550505050565b60006001600880549050612d5b9190613ea7565b9050600060096000848152602001908152602001600020549050600060088381548110612db1577f4e487b7100000000000000000000000000000000000000000000000000000000600052603260045260246000fd5b906000526020600020015490508060088381548110612df9577f4e487b7100000000000000000000000000000000000000000000000000000000600052603260045260246000fd5b906000526020600020018190555081600960008381526020019081526020016000208190555060096000858152602001908152602001600020600090556008805480612e6e577f4e487b7100000000000000000000000000000000000000000000000000000000600052603160045260246000fd5b6001900381819060005260206000200160009055905550505050565b6000612e958361128e565b905081600660008573ffffffffffffffffffffffffffffffffffffffff1673ffffffffffffffffffffffffffffffffffffffff168152602001908152602001600020600083815260200190815260200160002081905550806007600084815260200190815260200160002081905550505050565b828054612f1590613fd2565b90600052602060002090601f016020900481019282612f375760008555612f7e565b82601f10612f5057805160ff1916838001178555612f7e565b82800160010185558215612f7e579182015b82811115612f7d578251825591602001919060010190612f62565b5b509050612f8b9190612f8f565b5090565b5b80821115612fa8576000816000905550600101612f90565b5090565b6000612fbf612fba84613d21565b613cfc565b905082815260208101848484011115612fd757600080fd5b612fe2848285613f90565b509392505050565b6000612ffd612ff884613d52565b613cfc565b90508281526020810184848401111561301557600080fd5b613020848285613f90565b509392505050565b6000813590506130378161482c565b92915050565b60008083601f84011261304f57600080fd5b8235905067ffffffffffffffff81111561306857600080fd5b60208301915083602082028301111561308057600080fd5b9250929050565b60008135905061309681614843565b92915050565b6000813590506130ab8161485a565b92915050565b6000815190506130c08161485a565b92915050565b600082601f8301126130d757600080fd5b81356130e7848260208601612fac565b91505092915050565b600082601f83011261310157600080fd5b8135613111848260208601612fea565b91505092915050565b60008135905061312981614871565b92915050565b60008135905061313e81614888565b92915050565b60006020828403121561315657600080fd5b600061316484828501613028565b91505092915050565b6000806040838503121561318057600080fd5b600061318e85828601613028565b925050602061319f85828601613028565b9150509250929050565b6000806000606084860312156131be57600080fd5b60006131cc86828701613028565b93505060206131dd86828701613028565b92505060406131ee8682870161311a565b9150509250925092565b6000806000806080858703121561320e57600080fd5b600061321c87828801613028565b945050602061322d87828801613028565b935050604061323e8782880161311a565b925050606085013567ffffffffffffffff81111561325b57600080fd5b613267878288016130c6565b91505092959194509250565b6000806040838503121561328657600080fd5b600061329485828601613028565b92505060206132a585828601613087565b9150509250929050565b600080604083850312156132c257600080fd5b60006132d085828601613028565b92505060206132e18582860161311a565b9150509250929050565b60008060006040848603121561330057600080fd5b600084013567ffffffffffffffff81111561331a57600080fd5b6133268682870161303d565b935093505060206133398682870161312f565b9150509250925092565b60006020828403121561335557600080fd5b600061336384828501613087565b91505092915050565b60006020828403121561337e57600080fd5b600061338c8482850161309c565b91505092915050565b6000602082840312156133a757600080fd5b60006133b5848285016130b1565b91505092915050565b6000602082840312156133d057600080fd5b600082013567ffffffffffffffff8111156133ea57600080fd5b6133f6848285016130f0565b91505092915050565b60006020828403121561341157600080fd5b600061341f8482850161311a565b91505092915050565b60006020828403121561343a57600080fd5b60006134488482850161312f565b91505092915050565b61345a81613f0f565b82525050565b61346981613f21565b82525050565b600061347a82613d83565b6134848185613d99565b9350613494818560208601613f9f565b61349d8161416b565b840191505092915050565b60006134b382613d8e565b6134bd8185613daa565b93506134cd818560208601613f9f565b6134d68161416b565b840191505092915050565b60006134ec82613d8e565b6134f68185613dbb565b9350613506818560208601613f9f565b80840191505092915050565b600061351f602b83613daa565b915061352a8261417c565b604082019050919050565b6000613542603283613daa565b915061354d826141cb565b604082019050919050565b6000613565602683613daa565b91506135708261421a565b604082019050919050565b6000613588602083613daa565b915061359382614269565b602082019050919050565b60006135ab602583613daa565b91506135b682614292565b604082019050919050565b60006135ce601c83613daa565b91506135d9826142e1565b602082019050919050565b60006135f1601b83613daa565b91506135fc8261430a565b602082019050919050565b6000613614602483613daa565b915061361f82614333565b604082019050919050565b6000613637601983613daa565b915061364282614382565b602082019050919050565b600061365a601f83613daa565b9150613665826143ab565b602082019050919050565b600061367d602c83613daa565b9150613688826143d4565b604082019050919050565b60006136a0603883613daa565b91506136ab82614423565b604082019050919050565b60006136c3602a83613daa565b91506136ce82614472565b604082019050919050565b60006136e6602983613daa565b91506136f1826144c1565b604082019050919050565b6000613709602e83613daa565b915061371482614510565b604082019050919050565b600061372c602083613daa565b91506137378261455f565b602082019050919050565b600061374f603183613daa565b915061375a82614588565b604082019050919050565b6000613772602c83613daa565b915061377d826145d7565b604082019050919050565b6000613795601983613daa565b91506137a082614626565b602082019050919050565b60006137b8602083613daa565b91506137c38261464f565b602082019050919050565b60006137db602f83613daa565b91506137e682614678565b604082019050919050565b60006137fe602183613daa565b9150613809826146c7565b604082019050919050565b6000613821601b83613daa565b915061382c82614716565b602082019050919050565b6000613844602283613daa565b915061384f8261473f565b604082019050919050565b6000613867603183613daa565b91506138728261478e565b604082019050919050565b600061388a602c83613daa565b9150613895826147dd565b604082019050919050565b6138a981613f79565b82525050565b6138b881613f83565b82525050565b60006138ca82856134e1565b91506138d682846134e1565b91508190509392505050565b60006020820190506138f76000830184613451565b92915050565b60006080820190506139126000830187613451565b61391f6020830186613451565b61392c60408301856138a0565b818103606083015261393e818461346f565b905095945050505050565b600060208201905061395e6000830184613460565b92915050565b6000602082019050818103600083015261397e81846134a8565b905092915050565b6000602082019050818103600083015261399f81613512565b9050919050565b600060208201905081810360008301526139bf81613535565b9050919050565b600060208201905081810360008301526139df81613558565b9050919050565b600060208201905081810360008301526139ff8161357b565b9050919050565b60006020820190508181036000830152613a1f8161359e565b9050919050565b60006020820190508181036000830152613a3f816135c1565b9050919050565b60006020820190508181036000830152613a5f816135e4565b9050919050565b60006020820190508181036000830152613a7f81613607565b9050919050565b60006020820190508181036000830152613a9f8161362a565b9050919050565b60006020820190508181036000830152613abf8161364d565b9050919050565b60006020820190508181036000830152613adf81613670565b9050919050565b60006020820190508181036000830152613aff81613693565b9050919050565b60006020820190508181036000830152613b1f816136b6565b9050919050565b60006020820190508181036000830152613b3f816136d9565b9050919050565b60006020820190508181036000830152613b5f816136fc565b9050919050565b60006020820190508181036000830152613b7f8161371f565b9050919050565b60006020820190508181036000830152613b9f81613742565b9050919050565b60006020820190508181036000830152613bbf81613765565b9050919050565b60006020820190508181036000830152613bdf81613788565b9050919050565b60006020820190508181036000830152613bff816137ab565b9050919050565b60006020820190508181036000830152613c1f816137ce565b9050919050565b60006020820190508181036000830152613c3f816137f1565b9050919050565b60006020820190508181036000830152613c5f81613814565b9050919050565b60006020820190508181036000830152613c7f81613837565b9050919050565b60006020820190508181036000830152613c9f8161385a565b9050919050565b60006020820190508181036000830152613cbf8161387d565b9050919050565b6000602082019050613cdb60008301846138a0565b92915050565b6000602082019050613cf660008301846138af565b92915050565b6000613d06613d17565b9050613d128282614004565b919050565b6000604051905090565b600067ffffffffffffffff821115613d3c57613d3b61413c565b5b613d458261416b565b9050602081019050919050565b600067ffffffffffffffff821115613d6d57613d6c61413c565b5b613d768261416b565b9050602081019050919050565b600081519050919050565b600081519050919050565b600082825260208201905092915050565b600082825260208201905092915050565b600081905092915050565b6000613dd182613f79565b9150613ddc83613f79565b9250827fffffffffffffffffffffffffffffffffffffffffffffffffffffffffffffffff03821115613e1157613e106140af565b5b828201905092915050565b6000613e2782613f79565b9150613e3283613f79565b925082613e4257613e416140de565b5b828204905092915050565b6000613e5882613f79565b9150613e6383613f79565b9250817fffffffffffffffffffffffffffffffffffffffffffffffffffffffffffffffff0483118215151615613e9c57613e9b6140af565b5b828202905092915050565b6000613eb282613f79565b9150613ebd83613f79565b925082821015613ed057613ecf6140af565b5b828203905092915050565b6000613ee682613f83565b9150613ef183613f83565b925082821015613f0457613f036140af565b5b828203905092915050565b6000613f1a82613f59565b9050919050565b60008115159050919050565b60007fffffffff0000000000000000000000000000000000000000000000000000000082169050919050565b600073ffffffffffffffffffffffffffffffffffffffff82169050919050565b6000819050919050565b600060ff82169050919050565b82818337600083830152505050565b60005b83811015613fbd578082015181840152602081019050613fa2565b83811115613fcc576000848401525b50505050565b60006002820490506001821680613fea57607f821691505b60208210811415613ffe57613ffd61410d565b5b50919050565b61400d8261416b565b810181811067ffffffffffffffff8211171561402c5761402b61413c565b5b80604052505050565b600061404082613f79565b91507fffffffffffffffffffffffffffffffffffffffffffffffffffffffffffffffff821415614073576140726140af565b5b600182019050919050565b600061408982613f79565b915061409483613f79565b9250826140a4576140a36140de565b5b828206905092915050565b7f4e487b7100000000000000000000000000000000000000000000000000000000600052601160045260246000fd5b7f4e487b7100000000000000000000000000000000000000000000000000000000600052601260045260246000fd5b7f4e487b7100000000000000000000000000000000000000000000000000000000600052602260045260246000fd5b7f4e487b7100000000000000000000000000000000000000000000000000000000600052604160045260246000fd5b6000601f19601f8301169050919050565b7f455243373231456e756d657261626c653a206f776e657220696e646578206f7560008201527f74206f6620626f756e6473000000000000000000000000000000000000000000602082015250565b7f4552433732313a207472616e7366657220746f206e6f6e20455243373231526560008201527f63656976657220696d706c656d656e7465720000000000000000000000000000602082015250565b7f4f776e61626c653a206e6577206f776e657220697320746865207a65726f206160008201527f6464726573730000000000000000000000000000000000000000000000000000602082015250565b7f507572636861736520776f756c6420657863656564206d617820746f6b656e73600082015250565b7f4552433732313a207472616e736665722066726f6d20696e636f72726563742060008201527f6f776e6572000000000000000000000000000000000000000000000000000000602082015250565b7f4552433732313a20746f6b656e20616c7265616479206d696e74656400000000600082015250565b7f776869746c6973742073616c65206973206e6f74206163746976650000000000600082015250565b7f4552433732313a207472616e7366657220746f20746865207a65726f2061646460008201527f7265737300000000000000000000000000000000000000000000000000000000602082015250565b7f4552433732313a20617070726f766520746f2063616c6c657200000000000000600082015250565b7f45746865722076616c75652073656e74206973206e6f7420636f727265637400600082015250565b7f4552433732313a206f70657261746f7220717565727920666f72206e6f6e657860008201527f697374656e7420746f6b656e0000000000000000000000000000000000000000602082015250565b7f4552433732313a20617070726f76652063616c6c6572206973206e6f74206f7760008201527f6e6572206e6f7220617070726f76656420666f7220616c6c0000000000000000602082015250565b7f4552433732313a2062616c616e636520717565727920666f7220746865207a6560008201527f726f206164647265737300000000000000000000000000000000000000000000602082015250565b7f4552433732313a206f776e657220717565727920666f72206e6f6e657869737460008201527f656e7420746f6b656e0000000000000000000000000000000000000000000000602082015250565b7f45524337323155524953746f726167653a2055524920736574206f66206e6f6e60008201527f6578697374656e7420746f6b656e000000000000000000000000000000000000602082015250565b7f4552433732313a206d696e7420746f20746865207a65726f2061646472657373600082015250565b7f45524337323155524953746f726167653a2055524920717565727920666f722060008201527f6e6f6e6578697374656e7420746f6b656e000000000000000000000000000000602082015250565b7f4552433732313a20617070726f76656420717565727920666f72206e6f6e657860008201527f697374656e7420746f6b656e0000000000000000000000000000000000000000602082015250565b7f7075626c69632073616c65206973206e6f742061637469766500000000000000600082015250565b7f4f776e61626c653a2063616c6c6572206973206e6f7420746865206f776e6572600082015250565b7f4552433732314d657461646174613a2055524920717565727920666f72206e6f60008201527f6e6578697374656e7420746f6b656e0000000000000000000000000000000000602082015250565b7f4552433732313a20617070726f76616c20746f2063757272656e74206f776e6560008201527f7200000000000000000000000000000000000000000000000000000000000000602082015250565b7f4578636565646564206d617820746f6b656e2070757263686173650000000000600082015250565b7f4578636565646564206d617820617661696c61626c6520746f2070757263686160008201527f7365000000000000000000000000000000000000000000000000000000000000602082015250565b7f4552433732313a207472616e736665722063616c6c6572206973206e6f74206f60008201527f776e6572206e6f7220617070726f766564000000000000000000000000000000602082015250565b7f455243373231456e756d657261626c653a20676c6f62616c20696e646578206f60008201527f7574206f6620626f756e64730000000000000000000000000000000000000000602082015250565b61483581613f0f565b811461484057600080fd5b50565b61484c81613f21565b811461485757600080fd5b50565b61486381613f2d565b811461486e57600080fd5b50565b61487a81613f79565b811461488557600080fd5b50565b61489181613f83565b811461489c57600080fd5b5056fea2646970667358221220f665a8989d17d271a52926ddba043a3bfe3139ed91d565a0dfcd6674d13a7c7d64736f6c63430008040033",
  "linkReferences": {},
  "deployedLinkReferences": {}
}